:020000001628C0
:0E0006008312031323088A00220882000800D8
:1000140003208A110A128000840AA20A0319A30A7F
:08002400F003031D0A28080087
:10002C0083120313A001A10183168601831286019A
:10003C0001308316870083120718412807182728D8
:10004C0024287C30FC005F30FD00FD0B2B28FC0BC2
:10005C002B2800302106031D352800302006031DF7
:10006C003E280130A0000030A1000130860041285C
:0A007C008601A001A10121284228FD
:02400E004A2F37
:00000001FF
